:020000040800F2
:1000000068040020D50100086F06000821060008DA
:1000100000000000000000000000000000000000E0
:100020000000000000000000000000004107000880
:100030000000000000000000930100081D080008F7
:10004000E7010008E7010008E7010008E7010008F0
:10005000E7010008E70100080F0500081105000886
:10006000E7010008E70100080D050008E7010008A6
:10007000E7010008E7010008E7010008E7010008C0
:10008000E7010008DB08000800000000D9080008AC
:10009000E7010008E7010008E7010008E7010008A0
:1000A000E7010008E7010008E70100081D0C00084F
:1000B000E701000800000000E70100080000000060
:1000C00000F002F800F03EF80CA030C80838241800
:1000D0002D18A246671EAB4654465D46AC4201D180
:1000E00000F030F87E460F3E0FCCB6460126334274
:1000F00000D0FB1AA246AB4633431847700F0000EE
:10010000900F0000103A02D378C878C1FAD852078D
:1001100001D330C830C101D504680C6070470000BD
:100120000023002400250026103A01D378C1FBD813
:10013000520700D330C100D50B6070471FB51FBDFB
:1001400010B510BD00F063F81146FFF7F7FF00F09F
:1001500093FD00F07BF803B4FFF7F2FF03BC00F05F
:1001600081F80000064B19680868203080F3098880
:10017000022080F314883FBCAE4662B600BD00008A
:1001800004010020EFF3108072B6704780F31088EE
:100190007047EFF309800E4B1A6820381060F0C0EA
:1001A00044464D4656465F46F0C008B572B600F06C
:1001B00013FE62B60CBC116808681030F0C8A04687
:1001C000A946B246BB4680F309882038F0C81847D4
:1001D000040100200748804707480047FEE7FEE784
:1001E000FEE7FEE7FEE7FEE704480549034A054B44
:1001F000704700005D080008C10000086802002088
:1002000068040020680200207047704770477546F8
:1002100000F024F8AE46050069465346C008C00009
:10022000854618B020B5FFF7DFFF60BC00274908FE
:10023000B6460026C0C5C0C5C0C5C0C5C0C5C0C57E
:10024000C0C5C0C5403D49008D46704710B5044645
:10025000C046C0462046FFF77EFF10BD00487047ED
:100260000402002001491820ABBEFEE72600020070
:100270007047000000B58BB001210320400400F05E
:100280002FFA0121084600F04BFA0121C80200F0C4
:1002900047FA0121022000F033FA0121102000F07A
:1002A0002FFA002108A80172C17201208002099072
:1002B00009A98E4800F04AF90120C002099009A955
:1002C0008A4800F043F9022108A8017200218172D6
:1002D0000121C17203214172FF200130099009A957
:1002E0000920C00600F032F901204002099009A956
:1002F0000920C00600F02AF901208002099009A90E
:100300000920C00600F022F90120C002099009A9C5
:100310000920C00600F01AF9022208210920C006AF
:1003200000F05CF902220921C80600F057F9022208
:100330000A210920C00600F051F902220B210920F0
:10034000C00600F04BF90021684601836848079019
:1003500068464183018408A8817006A9654800F0B9
:100360001FFC2F21684601837F20079006A9624861
:1003700000F016FC00200390602168468180002177
:10038000818201820121C1800021C1820821418234
:100390000021018101A9574800F0E6FA01A955485A
:1003A00000F02CFB01A9534800F076FB01A951484D
:1003B00000F0BEFB1121684601700121417081707F
:1003C00000F056F901214C4800F08BFA0122114649
:1003D000494800F0BFFA0121464800F097FA02218F
:1003E00008A80172002181720121C17203214172AA
:1003F0004020099009A90920C00600F0A7F8802034
:10040000099009A90920C00600F0A0F80120099070
:1004100009A9364800F09AF80220099009A9334842
:1004200000F094F8012206210920C00600F0D6F859
:10043000012207210920C00600F0D0F80122002186
:100440002A4800F0CBF801221146284800F0C6F8EF
:100450000021684601834B20400107906846418394
:10046000018408A8817006A9244800F099FB0020A7
:1004700003906021684681800021818201820121F0
:10048000C1800021C182082141820021018101A98E
:100490001A4800F069FA01A9184800F0AFFA01A95A
:1004A000164800F0F9FA01A9144800F041FB01A92F
:1004B000104800F059FA01A90E4800F09FFA01A96E
:1004C0000C4800F0E9FA01A90A4800F031FB0121CB
:1004D000084800F00DFA0121084800F009FA01214E
:1004E000054800F005FA0BB000BD0000000400480C
:1004F0005F090000002C0140001000400004004093
:1005000010B500F0B3F8FFF7B5FE10BD70477047A7
:1005100010B500F087F810BD014948617047000030
:1005200000040140014600200022074B1B680B40DD
:100530001A46054B5B690B40002B03D0002A01D003
:10054000012000E00020704700040140F0B50A4699
:1005500000210023002400BF3DE001258D402B46F3
:1005600015681D402C469C4234D11579012D02D0CE
:100570001579022D16D185684F000326BE40B5437C
:10058000856055794E00B54086683543856085881D
:1005900001268E40B5438580858896798E40B6B217
:1005A0003543858005684F000326BE40B54305608E
:1005B00015794E00B540066835430560C5684F00A3
:1005C0000326BE40B543C560D5794E00B540C66828
:1005D0003543C560491C1029BFD3F0BDF0B50023D9
:1005E00000244D07EE0E1546B5402B46CD10AE004B
:1005F00005462035AD594E07F70E0F26BE40B543D0
:10060000CE10B60007462037BD51CD10AE003D4696
:10061000AD591D432C46CD10AD003E467451F0BD82
:1006200000BFFEE710B501208002FFF77BFF002826
:1006300003D001208002FFF76FFF01208002FFF747
:1006400071FF002803D001208002FFF765FF10BD75
:1006500010B50121044800F06AF9002803D00121F7
:10066000014800F041F910BD00100040704770478C
:1006700000218278002A27D0184A03231B02D218AF
:1006800003789B109B00D15802789207D30EFF226B
:100690009A400B469343194642789207120E03780C
:1006A0009B07DB0E9A4011430C4A03231B02D2180E
:1006B00003789B109B00D1500278D306DB0E0122F9
:1006C0009A40064B1A6007E00278D306DB0E01223F
:1006D0009A40024B80331A607047000000E100E04E
:1006E000002905D0054A52690243044B5A6104E0CF
:1006F000024A52698243014B5A617047001002401E
:10070000002905D0054AD2690243044BDA6104E0AE
:10071000024AD2698243014BDA61704700100240FD
:10072000002905D0054A92690243044B9A6104E00E
:10073000024A92698243014B9A617047001002405D
:10074000704700000CB5002001900090314800680F
:100750000121090408432F49086000BF2D480068A3
:1007600001214904084000900198401C0190009824
:10077000002804D10521090201988842EED12548BC
:100780000068012149040840002802D0012000909F
:1007900001E0002000900098012839D111201E4965
:1007A00008601C4840681B4948600846406848602B
:1007B000084640683F2109048843164948600846B6
:1007C000406811210904084312494860084600683E
:1007D0000121090608430F49086000BF0D48006861
:1007E0000121490608400028F8D00A4840688008DE
:1007F00080000849486008464068022108430549CE
:10080000486000BF034840680C2108400828F9D11F
:100810000CBD0000001002400020024010B500F0A6
:1008200033FB012801D000F01DFB00F001F810BDE2
:1008300070470000074908800021074A9161054977
:1008400009887D22D2005143491E034A5161072184
:10085000116170470001002000E000E010B51B4866
:100860000068012108431949086008464068184992
:100870000840164948600846006816490840134970
:100880000860084600680121890488430F49086010
:10089000084640683F21090488430C4948600846DF
:1008A000C06A00090001C8620846006BFF2154318C
:1008B0008843064908630846406B40084000486387
:1008C00000208860FFF73EFF10BD000000100240CE
:1008D0000CB8FFF8FFFFF6FE704710B5FFF7B8FE43
:1008E00010BDCA4302827047CA43028270470000AB
:1008F000002904D0028801231A43028003E0028801
:10090000014B1A4002807047FEFF0000002907D00B
:100910004422125A0123DB031A4344231A5205E0EE
:100920004422125A53045B0C44221352704730B5D0
:100930000246002000230024158A0D402B4695898D
:100940000D402C46002B03D0002C01D0012000E0EC
:10095000002030BD002A03D083890B43838102E04D
:1009600083898B438381704770B500240022002364
:10097000058C1C4E35400584028C8388048B194DF0
:100980006F3D2C40B51E2C400D882C43751E2A400F
:100990008D892A434D882A43134DA84208D0134D10
:1009A000A84205D0124DA84202D0124DA84212D141
:1009B0000C4DED1F2A40CD892A430A4DED1E2A40D9
:1009C0008D882A43074DFF3D2B400B4D2B400D8A50
:1009D0002B434D8A2B43838004838D6845630284B7
:1009E00070BD0000FEFF0000002C014000400140EF
:1009F0000044014000480140FFFD000070B50024A4
:100A000000220023058C1E4E35400584028C83880D
:100A1000048B1C4D2C401C4D2C400D782D062D0CAC
:100A20002C43174D103D2A408D892D052D0C2A434E
:100A30004D882D052D0C2A43144DA84219D1104D77
:100A4000703D2A40CD892D052D0C2A430C4D303D9B
:100A50002A408D882D052D0C2A430D4D2B400D4D20
:100A60002B400D8AAD042D0C2B434D8AAD042D0C6B
:100A70002B43838004838D688563028470BD0000EE
:100A8000EFFF0000FF8F0000FFFC0000002C014082
:100A9000FFFB0000FFF7000070B5002400220023D8
:100AA000058C1C4E35400584028C8388848B194D3F
:100AB00090352C40174DFD352C400D882C43164D9C
:100AC0002A400D7B2D062D0C2A438D782D062D0CEA
:100AD0002A43124DA84217D1114D2A408D7B2D0675
:100AE0002D0C2A430F4D2A400D792D062D0C2A433B
:100AF0000D4D2B400D4D2B400D8A2D052D0C2B43FC
:100B00004D8A2D052D0C2B43838084838D68C5630E
:100B1000028470BDFFFE0000FFFD0000002C0140BC
:100B2000FFF70000FFFB0000FFEF0000FFDF000009
:100B300070B5002200230024058C134E3540058437
:100B4000038C8488828B114D2A40114D2A400D78E8
:100B50002D062D0C2A430F4D2B400D7B2D072D0C00
:100B60002B438D782D072D0C2B430B4DA84205D11F
:100B70000A4D2C400D8AAD052D0C2C4384808283B8
:100B80008D680564038470BDFFEF0000FF8F0000D7
:100B9000FFFC0000FFDF0000002C0140FFBF000051
:100BA00000220288154B984206D001239B079842E9
:100BB00002D0134B984203D1124B1A404B881A4370
:100BC000114B984203D0114B1A400B891A430280F3
:100BD0004B68C3620B880385084B984208D00C4BC6
:100BE000984205D00B4B984202D00B4B984201D152
:100BF0008B7A03860123838270470000002C01401A
:100C0000000400408FFF000000100040FFFC0000C7
:100C1000004001400044014000480140704710B5C9
:100C2000044603E07D20C00000F006F82046641E64
:100C30000028F7D110BD000030B503460021002286
:100C40000B4DA9690B4D2D885D432C4600BF084D07
:100C5000A869814209D0884204D96D692D1A6D189E
:100C6000AA1801E00D1AAA180146A242EFD330BD1E
:100C700000E000E0000100200025012080F3108842
:100C800000BF3020FFF7D6FDFFF73AFC61E06C06AD
:100C9000640E6011002806D0012815D0022828D043
:100CA000032851D13BE0204640002A49085A2A49EE
:100CB00048630020C8638863204640002749085ADB
:100CC0002549403108603FE0204620384000234954
:100CD000085A214948630020C86320462038400054
:100CE0001C49085A1C49886300201B494031086090
:100CF0002AE0002018494863204640384000154942
:100D0000085A1549C8632046403840001349085A1C
:100D100011498863002010494031086014E0002028
:100D20000D4948632046603840000C49085A0A497A
:100D3000C863002088632046603840000549085A8F
:100D400005494031086000BF00BF6D1C0120FFF75E
:100D500066FF9CE7EC0F0008000400402C10000820
:100D60000B4909680968002901D1012100E000212F
:100D7000002904D00021C943064A116006E0044955
:100D80000968C968C868034A416811607047000073
:100D9000080100203401002001460A694B68886878
:100DA00098608B68486858605068884201D18868AC
:100DB0005060002008611068401E10601068704785
:100DC00042684A6093688B609368596091600861DB
:100DD00003685B1C036070471D480068002803D04F
:100DE00001201C49086032E000201A4908600BE02D
:100DF00019480068002802D172B600BFFEE7164805
:100E00000068401E144908601348006814214843D4
:100E100012490858002801D1012000E000200028D4
:100E2000E6D10D490968142251430C4A88184168DB
:100E3000496841600146083142688A4202D14168EE
:100E4000496841604168C968054A116000BF704740
:100E500038010020280100201C0100203C01002056
:100E60000401002010B5FFF78DF9044600F01EF8CC
:100E7000002803D001200007024948602046FFF700
:100E800085F910BD00ED00E006490968002901D18F
:100E9000012006E004490968002901D1022000E090
:100EA000002070472001002038010020F8B5002004
:100EB000009043480068002874D142480068401CF4
:100EC0004049086008460668002E1CD13E4800686C
:100ED0000068002801D1012000E00020002802D194
:100EE00072B600BFFEE738480768384800683649E0
:100EF00008603648076036480068401C344908607E
:100F0000FFF72EFF00BF3348006886423DD300BF85
:100F10002D4800680068002801D1012000E0002071
:100F2000002804D00020C0432A4908602CE026484D
:100F30000068C068C4686568AE4202D22548056092
:100F400022E0201DFFF728FFA06A002803D02046DA
:100F50001830FFF721FF2049E06A0968884202D96A
:100F60001D49E06A08601422E16A51431B4A88184F
:100F7000211DFFF725FF1A49E06A0968C96A8842FE
:100F8000C6D301200090C3E700BF15480068C06ABF
:100F90001421484311490858012808D9012000901C
:100FA00005E0FFE70F480068401C0E4908600E4846
:100FB0000068002801D0012000900098F8BD0000D2
:100FC0003801002018010020080100200C01002039
:100FD0002C010020340100201C0100203C010020D5
:100FE00004010020240100202801002000007600D8
:100FF000EB006001D4014702B80228039603020403
:101000006B04D10435059505F2054B06A006F206E2
:101010003E078707CB070A0844087908A808D308C1
:10102000F80817093109450953095C095F095C098A
:101030005309450931091709F808D308A8087908A0
:1010400044080A08CB0787073E07F206A0064B06AE
:10105000F20595053505D1046B04020496032803B7
:10106000B8024702D4016001EB0076008C10000842
:10107000000100203C00000004010008C810000826
:101080003C0100202C0300002001000800000000AB
:101090000000000000000000000000000000000050
:1010A0000000000000000000000000000000000040
:1010B0000000000000000000000000000000000030
:0810C000000000000000000028
:04000005080000C12E
:00000001FF
